:040000000202CD32F9
:01000B0032C2
:0100130032BA
:01001B0032B2
:0100230032AA
:01002B0032A2
:1002CD0075810712029EE5826003020033740044BB
:1002DD00006029740C2400F974033400FA90030CA7
:1002ED00780075A000E493F2A308B8000205A0E51C
:0F02FD0082B501F1E583B502EC75A0FF02003375
:1000330012003880FE120179753600900001120219
:10004300347A007B00C3EA9414EB64809480502DCF
:10005300C29075360090000FC002C003120234D064
:1000630003D002D29075360090000FC002C0031275
:100073000234D003D0020ABA00010B80C8D2901216
:100083000093C29075360090000F12023480EE2266
:10009300E4F53575340290028275F0021201D475CD
:1000A3003600903A98120234E4F535753401900223
:1000B3008275F0021201D42275B0FFC2A0D2A175DD
:1000C3003601900064120234D2A2753601900064A6
:1000D300120234753601900064120234AAB0C2A22F
:1000E300530280BA800280D07536019000641202F8
:1000F30034C2A175B0FF22AA82C0021200BBD00293
:10010300C2A1D2A0753601900064C002120234D09D
:1001130002C290D2A2753601900064C0021202346A
:10012300D0028AB0753601900064120234C2A275FF
:10013300B0FFD29022AA82C0021200BBD002C0023A
:100143001200BBD002C2A1C2A0753601900064C0E8
:1001530002120234D002D2A2753601900064C002AA
:10016300120234D0028AB075360190006412023450
:10017300C2A275B0FF22D2A27536009000101202FF
:100183003475B03075360090000512023475B03006
:1001930075360190006412023475B03075360190E3
:1001A300006412023475B0307536019000281202D3
:1001B3003475820C1201387582011201387582067A
:1001C30012013875828012013822758201120138BA
:1001D30022AA82AB83ACF0758280C002C003C00444
:1001E300120138D004D003D0027D008A828B838C25
:1001F300F01202A2FEBE000280360D0ABA00010B05
:100203008E82C002C003C004C0051200FAD005D01C
:1002130004D003D0027536019001F4C002C003C0BC
:1002230004C005120234D005D004D003D00280BB31
:1002330022AA82AB8375F063E536A4FCADF0C374E8
:10024300649CFCE49DFD7E007F008E008F01C3E86B
:100253009AE99B50297800790088378938C3E537B4
:100263009CE5389D501100000000000000000000D4
:1002730008B800E50980E20EBE00010F80CC2254CD
:10028300656368436F617374616C20496E6E6F764A
:100293006174696F6E204C6162730075820022C8BD
:1002A300C0E0E5F0601114601314601314601314BC
:1002B30014600474FF800EA882E68009E080069330
:0A02C3008003A882E2F8D0E0C82210
:00000001FF
